:1000000000800020BD010000410E0000FD0D000039
:10001000FD0D0000FD0D0000FD0D0000FD0D0000B8
:10002000FD0D0000FD0D0000FD0D0000410E000063
:10003000410E0000FD0D00007D2100008121000027
:10004000410E0000410E0000410E0000410E000074
:10005000410E0000410E0000410E0000410E000064
:10006000410E0000410E0000410E0000410E000054
:10007000410E0000410E0000410E0000410E000044
:10008000410E0000410E0000410E0000410E000034
:10009000410E0000410E0000410E0000410E000024
:1000A000410E0000410E0000410E0000410E000014
:1000B000410E0000410E0000410E0000410E000004
:1000C000410E0000410E0000410E0000410E0000F4
:1000D000410E0000410E0000410E0000410E0000E4
:1000E000410E0000410E0000410E0000410E0000D4
:1000F000410E0000410E0000410E0000410E0000C4
:10010000410E0000410E0000410E0000410E0000B3
:10011000410E0000410E0000410E0000410E0000A3
:10012000410E0000410E0000410E0000410E000093
:10013000410E0000410E0000410E0000410E000083
:10014000410E0000410E0000410E0000410E000073
:10015000410E0000410E0000410E0000410E000063
:10016000410E0000AD140000410E0000410E0000E1
:10017000410E0000410E0000410E0000410E000043
:10018000410E0000410E0000410E0000410E000033
:10019000410E0000410E0000410E0000410E000023
:1001A000410E0000410E0000410E0000410E000013
:1001B000410E0000410E0000410E0000574B4CF272
:1001C000205210B5DA814DF62812DA8100BF00BF47
:1001D00000F03AFE524B4FF010621A63514A9A6394
:1001E000514ADA63514A136913F4807303D153619E
:1001F0004FF4A85313614E4B9A78110703D59A78A0
:1002000042F008029A704B4B4B482A221A704B4B13
:10021000DA1C121AC11E22F00302994288BF002282
:10022000474900F017FD474B4748DA1C121AC11E18
:1002300022F00302994288BF0022002103F086F8D1
:10024000424943484FF4DE7200F004FD414B424AFC
:10025000802103F8011B9342FBD14FF0E0233C4A7D
:10026000C3F8082D3D4B8A221A70A3F5805324222F
:100270005A70A0221A709A799207FCD59A79D406FE
:10028000FCD4374B9A7902F00C02082AFAD10322E7
:100290001A7140225A719A799006FCD5304A9379A6
:1002A0005906FCD51E4B2F4959640221996420211F
:1002B0001170917901F00C010C29FAD12A4A5A6087
:1002C0004FF0E023294A5A6100229A6107221A61FD
:1002D000274AC3F8202D62B600F00EFE134B5B696F
:1002E000DA0705D5234800F0FBFD234B234ADA61EA
:1002F000234B1B785B0609D51F4C204BE2699A42C1
:1003000004D11C4800F0ECFD0023E36100F0A2FDE5
:1003100003F0B8F800F096FCFEE700BF00200540AF
:1003200000800440823F04000100002B00D0034005
:1003300000D0074000E007402087FF1F208DFF1FEF
:10034000F03E0000BC91FF1F208DFF1F0000000049
:100350000082FF1F00E400E05FE400E00050064080
:100360000040064000000301C0100500FF760100B8
:10037000000020201040F06500E00340A5C3945A1F
:1003800000F00740FFFFFFFFFFFFFFFFFFFFFFFF42
:10039000FFFFFFFFFFFFFFFFFFFFFFFFFFFFFFFF6D
:1003A000FFFFFFFFFFFFFFFFFFFFFFFFFFFFFFFF5D
:1003B000FFFFFFFFFFFFFFFFFFFFFFFFFFFFFFFF4D
:1003C000FFFFFFFFFFFFFFFFFFFFFFFFFFFFFFFF3D
:1003D000FFFFFFFFFFFFFFFFFFFFFFFFFFFFFFFF2D
:1003E000FFFFFFFFFFFFFFFFFFFFFFFFFFFFFFFF1D
:1003F000FFFFFFFFFFFFFFFFFFFFFFFFFFFFFFFF0D
:10040000FFFFFFFFFFFFFFFFFFFFFFFFDEF9FFFF23
:100410000548064B1B1AD90F01EBA301491002D066
:10042000034B03B118477047208DFF1F208DFF1F1E
:100430000000000008B5054B1BB105490548AFF3A6
:100440000080BDE80840FFF7E3BF00BF00000000E8
:10045000208DFF1FE83E00002DE9F047314D324C62
:100460002E68324FDFF8C89084B040F2EE2801F0D9
:10047000EBFD2378002B48D03B78DA0745D52B6875
:10048000D9F800209B1A0E2B3FD92A4FDFF89C90F9
:10049000DFF89CA0DFF8A08003263B68D3B901F009
:1004A000D3FD23784FF47A705BB199F80030DB0705
:1004B00007D52B68DAF800105B1A01220E2B88BFD3
:1004C0003A6000F037FE98F800100D2000F0D0FDE3
:1004D000013EE2D1194901A800F0A6FA01A800F0F6
:1004E00053F901A800F0DAFA1549164800F056FA57
:1004F000144800F081FA1449124800F04FFA1148EC
:1005000004B0BDE8F04700F077BA2B6822789B1B57
:100510002AB1B3F5FA6FB8D801F096FDA7E74345C5
:10052000FAD9B2E77C8DFF1F5C8EFF1F808EFF1F04
:10053000848EFF1F688DFF1F708DFF1FD83C000049
:10054000388DFF1F2887FF1F448DFF1F144A154B4E
:100550001549164810B5002414701C6000F0DAFA32
:100560001349144800F0D6FA0D20012100F0A6FD31
:100570002146172000F0A2FD2146162000F09EFD26
:100580002146152000F09AFDFFF766FFBDE81040F8
:1005900009484FF416634FF40872032100F080B944
:1005A000548DFF1F508DFF1FE83C0000388DFF1F4A
:1005B000FC3C0000448DFF1F6C8DFF1FF0B519221D
:1005C00087B00121172000F09DFE354F354E364C87
:1005D000364D03461922012116203B7000F092FE91
:1005E000192201213070152000F08CFE304923685B
:1005F000304A287001FB03222F49B1EB720F03D858
:100600000133236007B0F0BD2C4903A800F00CFAB9
:10061000214603A800F0FCF803A800F03FFA28499F
:10062000684600F001FA3F78264903A800F0FCF97B
:1006300003AA3946684600F0B5F803A800F02EFA80
:10064000684600F02BFA2049684600F0EDF936784C
:100650001C4903A800F0E8F903AA3146684600F0F7
:10066000A1F803A800F01AFA684600F017FA174933
:10067000684600F0D9F92D78124903A800F0D4F9A2
:1006800003AA2946684600F0E7F803A800F006FA36
:10069000684600F003FA23680133236007B0F0BD19
:1006A000648DFF1F658DFF1F508DFF1F668DFF1F1F
:1006B000CDCCCCCC9899991999999919043D000001
:1006C000083D0000143D0000183D0000243D0000DE
:1006D00070B5124C124E134D0021204600F0A4F9C3
:1006E0002046114C3246294601F0F0FD00212046FB
:1006F00000F09AF932462946204601F0E7FD0B4802
:1007000000F0CAF80A4800F0C7F80A4800F0C4F838
:10071000BDE87040084800F0BFB800BF388DFF1F2B
:100720002087FF1F9D0A0000448DFF1F6C8DFF1F57
:10073000588DFF1F5C8DFF1F608DFF1F10B50F4987
:1007400084B0044600F04EFA30B10C48002104B0E9
:10075000BDE8104001F072BB094901A800F064F93E
:10076000214601A800F028FA0146064800F016F9D3
:1007700001A800F093F904B010BD00BF103D0000C7
:10078000303D00002887FF1F10B5054C014620466C
:1007900000F004F92046BDE8104000F02DB900BF7C
:1007A0002887FF1FF0B5174F85B006460D4601A8F4
:1007B0003946144600F038F9314601A800F0FCF93A
:1007C0001149124E00F000FA0146304600F0E6F8FA
:1007D00001A800F063F93846012101F02FFB002346
:1007E0000A222946304600F015F9214601A800F0FA
:1007F00039F901A8FFF7A2FF01A800F04FF905B0F1
:10080000F0BD00BF303D0000343D00002887FF1FD1
:1008100030B585B00C4605460C4901A800F004F936
:10082000294601A800F0C8F909490A4D00F0CCF9A1
:100830000146284600F0B2F801A800F02FF921681F
:10084000284605B0BDE8304000F0CEB8303D00008D
:10085000343D00002887FF1F30B587B015460C4691
:100860000146684600F0FEF8294603A800F0FAF8B1
:1008700003AA21466846FFF795FF03A800F00EF98A
:10088000684600F00BF9034807B0BDE8304000F0BF
:10089000B3B800BF2887FF1FFF2202704270704765
:1008A00021292ED8F8B51E46CB1E1D2B2BD8174C50
:1008B00024FA03FC05461CF0010000D1F8BDC8B2C3
:1008C00017462870124900F069FBFF243A113311D2
:1008D000AA70EB7028786C70002100F0C9FB2878B2
:1008E000012100F0EBFB2B780A4A5909012052F84C
:1008F000214003F01F0300FA03F3234342F82130A1
:10090000F8BD002070470020F8BD00BFCF005E207A
:1009100000004842748DFF1F70B5012A8AB008BFDD
:100920000A22A1B34FF0210E02E05FFA86FE2946AB
:10093000B1FBF2F502FB15145FFA84FC092C0CF1F3
:10094000300498BF5FFA84FC0EF1280488BF0CF1D4
:10095000370C6C4488BF5FFA8CFC91420EF1FF3675
:1009600004F824CCE1D24BB10EF1FF3E5FFA8EFECB
:100970000EF128036B442D2203F8242C036801A9EF
:100980005B68CEF12202714498470AB070BD3022F4
:100990008DF825204FF0210EE5E700BF2DE9F0414D
:1009A0008C688AB0DCB10025884606462F462B4667
:1009B000212201A9404600F02BF93368202C224661
:1009C0005B6828BF202201A930461544A41A984725
:1009D0000744002CEBD138460AB0BDE8F081274629
:1009E00038460AB0BDE8F0810029BABF49422D233C
:1009F00000230A22FFF790BF00B5036883B040F6DA
:100A00000D22ADF804205B68022201A9984703B0CB
:100A10005DF804FB32B9036800B51B685DF804EBB0
:100A2000C9B21847FFF778BFF8B50026044606603C
:100A30004660866029B108460D4602F021FF074650
:100A400008B92046F8BD013001F03AFF0028F8D07F
:100A5000C4E900070670A760294602F0AFFE2046F1
:100A6000F8BD00BFF8B588424FF0000504460560A8
:100A70004560856002D08E680F680EB92046F8BDCB
:100A8000701C01F01DFF0028F8D0C4E900060570B5
:100A9000A660394602F092FE2046F8BD10B5044625
:100AA000006801F015FF204610BD00BFF8B50446F0
:100AB000154632B9036803B11A700023A3602046BB
:100AC000F8BD43689A420E461CD90068511C02F0DA
:100AD000C3F9074660B1A368206065600BB9037075
:100AE0002768A5603146384602F068FE2046F8BD0A
:100AF000206810B101F0ECFE276000236360A36062
:100B00002046F8BD0768A5603146384602F056FE1B
:100B1000ECE700BF38B505460C4649B1084602F07F
:100B2000AFFE214602462846FFF7C0FF284638BDE3
:100B3000A960284638BD00BF2DE9F8430446006887
:100B4000A36888420D46164609D8C218914206D2BB
:100B50000F1A4FF0010936B92046BDE8F8834FF06F
:100B60000009002EF8D0626803EB060890450CD906
:100B700008F1010102F070F90028EDD0A368C4E982
:100B8000000813B903702068A368B9F1000F08D1F9
:100B90002946184402F012FEC4F808802046BDE839
:100BA000F8833246C119184400F054F82368002233
:100BB00003F80820F0E700BF10B58A68096804460A
:100BC000FFF7BAFF204610BD38B5054641B10846CB
:100BD0000C4602F055FE214602462846FFF7ACFFC0
:100BE000284638BD826808B50B463AB161B1006845
:100BF00002F07AFCB0FA80F0400908BD31B11878F3
:100C0000B0FA80F0400908BD0368F8E7012008BD8C
:100C1000BAB138B50C4621B185689D4202D800238F
:100C20000B7038BDED1A02F1FF3C0168654528BF25
:100C3000654619442A46204602F0DAFB0023635534
:100C400038BD704708B5FFF781FCFFF7B7FC01F02E
:100C5000FBF9FAE701B441EA000313F003036FD193
:100C6000403A41D351F8043B40F8043B51F8043B6F
:100C700040F8043B51F8043B40F8043B51F8043B76
:100C800040F8043B51F8043B40F8043B51F8043B66
:100C900040F8043B51F8043B40F8043B51F8043B56
:100CA00040F8043B51F8043B40F8043B51F8043B46
:100CB00040F8043B51F8043B40F8043B51F8043B36
:100CC00040F8043B51F8043B40F8043B51F8043B26
:100CD00040F8043B51F8043B40F8043B51F8043B16
:100CE00040F8043B403ABDD2303211D351F8043BB6
:100CF00040F8043B51F8043B40F8043B51F8043BF6
:100D000040F8043B51F8043B40F8043B103AEDD264
:100D10000C3205D351F8043B40F8043B043AF9D2B5
:100D200004320AD0D2071CBF11F8013B00F8013B86
:100D300003D30B7803704B78437001BC704700BF3E
:100D40000C2A4AD310F0030311D0C3F10403D21AC2
:100D5000DB071CBF11F8013B00F8013B07D311F87A
:100D6000013B00F8013B11F8013B00F8013B11F099
:100D700003033FF475AF30B4043AC91AC3F1040C4D
:100D800051F8044B022B19D0032B0BD0240A51F835
:100D9000043B1D0644EA050440F8044B1C46043A93
:100DA000F4D216E0240E51F8043B1D0244EA050477
:100DB00040F8044B1C46043AF4D20AE0240C51F8E3
:100DC000043B1D0444EA050440F8044B1C46043A65
:100DD000F4D20432B1EB0C0130BC043AA0D3013A96
:100DE00011F8013B00F8013BF9D20B7803704B7806
:100DF00043708B78837001BC704700BF08B50F4CFF
:100E0000636B58030DD4636B59050FD4636B1A05DC
:100E100011D4636BDB04F3D500F012F8636B580355
:100E2000F1D500F043FB636B5905EFD500F008F8EE
:100E3000636B1A05EDD500F003F8EAE70080044083
:100E400008B5FFF7DBFF00BF014B10221A80704787
:100E500000200540704700BF094A08B503461068E6
:100E600033B169460344A1F580518B4201D213602E
:100E700008BD02F001FB0C2303604FF0FF3008BDFA
:100E80002487FF1F01F1FF3C70B56546002401E097
:100E900070460134B0FBF2FE02FB1E03092B03F186
:100EA00030068ABF3733F3B2DBB2904205F8013F18
:100EB000EED2631C0022CA54C8187CB162461CF8EA
:100EC000015F10F801ED8CF800E0A1EB0C03023299
:100ED000013B521A23449A420570EFDB084670BD6D
:100EE000034B002210215A615A6018605961704703
:100EF00000D00340704700BFF0B54FF0E0244FF43E
:100F000000054FF0807CC4F80851C4F808C14FF0C8
:100F1000007CC4F808C11D4A1D481E494FF0806C72
:100F2000C4F808C1282300274BF6FF7609254FF0A7
:100F3000006CC4F808C183B057609660D3605361F9
:100F4000D3615362D3625363D363536415604760C4
:100F50008660C360436105604F608E60CB604B610B
:100F60000D6001F015F9FFF7C5FF0B4C23680093E6
:100F7000009B132BFAD900F053FE23680193019BC9
:100F8000B3F5967FF9D303B0F0BD00BF00800340F6
:100F90000090034000800B407C8DFF1F2DE9F0473F
:100FA0000E4680462C49304601F042FC2B4B00286F
:100FB00047F6122712BF4FF0020A4FF0010A1F46F0
:100FC00000244FF05E5927FA04F001F03BFA49463D
:100FD000054601F08FFA0146304601F03DFC30B97C
:100FE0000134072CEFD1F80901F02CFA05463146FF
:100FF000284601F033FB4FF07C5101F071F901F00C
:101000003FFC4FF6FF73984228BF1846A8F1030330
:10101000012B11D9A8F105085FFA88F8B8F11B0F68
:1010200008D80F4A012303FA08F31A4010D113F02D
:10103000016F0BD1BDE8F0870A4B002244EACA04D5
:101040001A605A6098601C60BDE8F087064BF5E7AF
:10105000064B0022F2E700BF001BB740006CDC0229
:10106000338007000090034000800B400080034065
:10107000212816D810B4104B53F8302092F8804233
:101080002CB1012371B982F8003110BC704703EB19
:10109000C0035B681A6849B142F0030210BC1A60D1
:1010A0007047704782F8803010BC704722F002020F
:1010B00010BC1A60704700BF383D0000212820D8BE
:1010C0001B4A02EBC00301295B680FD004291DD025
:1010D00052F83000002280F8802299B1022922D0F3
:1010E00003290DD14FF481721A60704752F8300015
:1010F0004FF4A27280F880121A601A6822F020025F
:101100001A6070474FF480721A60704752F83010BE
:101110004FF4A272012081F880021A601A6842F02E
:1011200020021A60704740F203121A60704700BF35
:10113000383D00002DE9F843044672B6204F4FF0C9
:10114000E02293693D68D2F8042D62B6520102D5BF
:10115000322B88BF01350CB9BDE8F883DFF8649005
:10116000DFF86480A9EB0303A8FB03234FF47A7232
:1011700002FB05F505EB93154FF0E02672B6B16959
:101180003A68D6F804CD62B6A9EB0103A8FB0303C5
:101190001CF0806FC5EB93134FF47A7002D03229A4
:1011A00088BF013200FB0233B3F57A7F04D3013CE0
:1011B000D2D005F57A75E1E700F046FFDEE700BF23
:1011C0007C8DFF1FFF760100ABAAAAAAC1EBC1016B
:1011D000490001E0013918D00378002BFAD101E071
:1011E000013912D00378002BFAD070B472B61B4CC0
:1011F0004FF0E0239A692568D3F8043D62B65E019A
:1012000007D5322A05D9013503E00020704701399E
:1012100022D00378002BFAD172B64FF0E0239E69FA
:101220002168D3F8043D62B65B0102D5322E88BF37
:1012300001310B4B981A0B4A9B1BA2FB0040800903
:10124000A2FB0323C0EB93104FF47A7303FB15004A
:1012500003FB010070BC70470020FBE77C8DFF1F83
:10126000FF760100ABAAAAAAC1EBC101490001E0C7
:10127000013918D00378002BFAD001E0013912D0DF
:101280000378002BFAD170B472B61B4C4FF0E023F8
:101290009A692568D3F8043D62B65E0107D5322A03
:1012A00005D9013503E000207047013922D00378C9
:1012B000002BFAD072B64FF0E0239E692168D3F874
:1012C000043D62B65B0102D5322E88BF01310B4B63
:1012D000981A0B4A9B1BA2FB00408009A2FB032328
:1012E000C0EB93104FF47A7303FB150003FB01006E
:1012F00070BC70470020FBE77C8DFF1FFF7601006C
:10130000ABAAAAAA21280B4611460ED833B9084B1E
:1013100053F8300000F50070FFF7A6BF044B53F8F8
:10132000300000F50070FFF751BF0020704700BF8C
:10133000383D0000431E032B17D872B60C4951F8F4
:10134000230080B110B40B4CB0F800C034F8132067
:10135000A2EB0C02D0F804C041F823C024F81320FB
:1013600062B610BC704762B670470020704700BF7D
:10137000108EFF1F608EFF1F013803280BD872B636
:10138000074B53F8203043B100205B680130002B3D
:10139000FBD162B67047002070471846F9E700BFDE
:1013A000388EFF1F10B472B6194A1A4C042312F873
:1013B000011B090743F0010C05D554F8331061B146
:1013C00054F83C10B9B10433142BF0D162B6124B6F
:1013D00000221A7010BC00F09BBC0F4904EBC30242
:1013E000083050600A780D4844F83300013A0A701A
:1013F00062B610BC7047084A094904EBCC030830B8
:101400005860137844F83C10013B137062B6F0E763
:10141000C83E00000080FF1F688EFF1F880040004C
:10142000C8004000421E032A0ED81C4B400140F069
:10143000100010B4034472B6194CA05C03281CD8E9
:10144000DFE800F01315031870470520A05413F0CF
:10145000080F088814BFC8228822083142EA0042D7
:1014600059601A6062B610BC70470320EEE708337B
:101470000220EBE708330420E8E70A4B53F8220088
:1014800038B1094B53F82200416043F8221062B68C
:10149000E9E743F82210044BF7E700BF0080FF1F85
:1014A000588EFF1F388EFF1F488EFF1F2DE9F04F0B
:1014B000DFF8CCA2DFF8CCB285B03DE0B24D9E089B
:1014C00005EBC607013A796813F00803D4B2A1F11D
:1014D000080040F0B88055F836204FEA124C120C44
:1014E00021F808CC00F0A78021F8063C41F8043C24
:1014F000A64B53F82420002A00F00182A44B53F895
:101500002420506043F82400A24B33F81420944464
:1015100023F814C000F0DCFB002800F0E98117F08C
:10152000080F9D4B00F1080018BF5B46786045F836
:10153000363008238AF880309AF880305907DCB2B8
:101540001BD5964B1B78ABB195490A7802F0FF0387
:101550002AB1013BDBB20B70002B00F046839149AE
:101560000A7802F0FF032AB1013BDBB20B70002BBB
:1015700000F0EB8104238AF8803014F0080200F0B8
:10158000CC819AF89020D3B2120997D1DFF8F89164
:101590009B0809EBC30459F833006468C0F3830067
:1015A00009287CD00FD80138012808D87E4A158830
:1015B00042F22100854200F0FB8149F833B001235B
:1015C0008AF89430B5E70D28F9D1D4E90007774DB2
:1015D00049F833B0744E764CC9F8102083B240F20B
:1015E000816CC9F818202A6063454FF00102C6E9F2
:1015F0000007227000F2FF80B3F5D06F80F0CB823D
:10160000B3F5817F00F0268240F2DE8040F20232A4
:1016100093427BD107F07F07042F00F20881020C70
:1016200040F00581634911F8273043F0020301F8C7
:101630002730134670E017F0080F574B18BF5B4672
:1016400045F8363075E700F063FB5B495B4A51F8BB
:101650002430002B00F05781586841F82400115DB8
:1016600003F108007860032905D8DFE801F0120FC4
:101670001502042111551A8817F0080F14BFC8234A
:10168000882343EA024345F8363052E702211155D8
:10169000F1E703211155EEE705211155EBE7434D25
:1016A0002A683AB34649424C0F88464894F800E00D
:1016B0000678402F3B4628BF4023BEF1000F8EF036
:1016C000010E84F800E046F0020486F00106067080
:1016D00009EBC400426014BFC820882040EA0340E0
:1016E0001A44FB1A9BB249F834000B80002B00F01F
:1016F00036812A602C4B1A88B2F5A06F7FF45FAF59
:101700009A788AF8982000225A7058E7B3F5A06FAB
:1017100040F08D8000221346B6F806C02948944553
:1017200028BF944667460278402F28BF402742F0E2
:10173000020E3E0409EBCE0846F0C806C8F8043095
:1017400049F83E6000263B442670BCEB070782F058
:101750000106067040F01181BCF13F0F4FF001050A
:1017600009D946F00206027009EBC60225705360E3
:10177000882349F8363001238AF894301FE700BFE8
:1017800000200740C80040000080FF1F108EFF1F90
:10179000208EFF1F608EFF1F880040005C8EFF1FA1
:1017A0005D8EFF1F888EFF1F308EFF1F048EFF1F70
:1017B000018EFF1FC0200740388EFF1F588EFF1F6D
:1017C000028EFF1F008EFF1F802B00F08B81822B6B
:1017D0002DD107F07F07042F29D8A74A00231380B3
:1017E000A64B13F827309F0740F1FC8101231370AB
:1017F000A14B022290E742F2210C6345BBD01DD9D8
:1018000042F2212293420DD1BFB2002F82D19C4BD4
:101810001A689C4B1A609C4BC0F30740002218705A
:10182000134679E742F2213293423FF473AF0F231C
:101830008AF8C03001238AF89430C0E6B3F5086F07
:1018400000F04A81B3F5106FF1D1904BC0F307401F
:101850000425187059F835301A0606D40135142DB0
:101860000CD059F835301A06F8D509EBC503013507
:101870005868083800F04CFA142DF2D1844A854B90
:101880000292854A0192854E854ADFF818820394B8
:10189000009200251C4656F8047B2FB138467F681D
:1018A00000F036FA002FF9D1009BD8F8007043F809
:1018B000045B46F8045C00932FB138467F6800F063
:1018C00027FA002FF9D1029B48F8045B43F8045B28
:1018D0000293019B23F8025B01932378023B032BC5
:1018E00000F20981DFE813F03F0104013F01040128
:1018F0006D4A45F8360013780133137019E643F842
:101900002400674BFEE5115D022926D07FF611AE5B
:1019100003291DD1012313550BE6E0076ED42106E0
:1019200021D4A20708D5614B93F888200221D2B2B6
:1019300083F8882083F88010E30603D55B4B1022E0
:1019400083F8802005B0BDE8F08F00F059FB11E668
:1019500017F0080F14BF032302231355E9E53F2FA7
:1019600098BF0022C5E6514B80220D2183F8C0109C
:1019700083F88020A207DFD5D5E746F00206027083
:10198000402F09EBC6003A4628BF402243601004AE
:10199000134440F088000121BA1A49F8360021703A
:1019A00055D02B60424B1A8001238AF8943006E60A
:1019B00092885AB93F4AE51D14F8011B02F8011F2D
:1019C000AC42F9D13C4A1268862A3CD03B4C3C4898
:1019D00025780278002D85F00105257042F002047B
:1019E00082F00102027009EBC4024FF00000506067
:1019F00014BFC822882249F83420DEE52B4B30483A
:101A00003049314C022583F8945002702F480C6005
:101A10002F4D48608C600D24CD60FF200A618A61E3
:101A200083F8C04001219F2483F8880083F8800058
:101A300083F8982083F88C0083F8844083F894100E
:101A400005B0BDE8F08F234A0F201070BEE73F2F8E
:101A5000A7D890E607F07F07042F3FF6E8AE000C0A
:101A60007FF4E5AE054A12F8273023F0020302F8AE
:101A70002730002213464FE6088EFF1FC020074084
:101A80007C8DFF1F848EFF1F808EFF1F5C8EFF1FCB
:101A9000488EFF1F588EFF1F608EFF1F108EFF1F86
:101AA000208EFF1F388EFF1F688EFF1F002007400B
:101AB000028EFF1F778EFF1F788EFF1F018EFF1F84
:101AC000008EFF1F0080FF1F88004000808DFF1FD9
:101AD000C08DFF1F5D8EFF1F484B49491B780B705F
:101AE0000B4619E6464A00231380454B022213E6B3
:101AF0004FF001032370434BB34204F101047FF420
:101B0000CAAE414E039CDFF80481414F002333707D
:101B1000042518F8013B3F4AAB541B0725D445F078
:101B2000020145F0030204350023142D49F8313039
:101B300049F83230EDD1384F25783A7842F002003A
:101B400009EBC00C85F00106CCF80430002D4DD116
:101B5000882382F0010226703A7049F83030012360
:101B60008AF894302BE52570C5E700F0B1F800281D
:101B700032D009EBC5030830586049F8357000F0E1
:101B8000A7F808B345F0010309EBC3020830506021
:101B900049F833B0C3E7214A5368002B3FF447AEFE
:101BA000000CBFB204E013690C32002B3FF43FAECF
:101BB00011888142F7D15188B942F4D1000A032833
:101BC0000CBF1A781289A7E533780133337045F0DA
:101BD000010349F83300A2E7337849F835000133AF
:101BE0003370CCE7064B022296E500BE2670C82370
:101BF00082F001063E7049F83030BCE55C8EFF1F74
:101C0000088EFF1F208EFF1F688EFF1FC83E00003A
:101C100088004000C0200740008EFF1F743E000077
:101C200070B500F01BFB00231A4A194642F8331026
:101C300002EBC3000133142B4160F7D1164C174B54
:101C4000606B174D40F480206063C2F3072483F873
:101C50009C40144CFF204FF0010CC2F30746120EBB
:101C600083F8B0604FF0E02E83F8B42083F8800052
:101C700083F88800187483F894C0217083F884C0B6
:101C8000702385F849304FF400721023CEF80821F4
:101C9000237270BD0080FF1F0080044000200740B9
:101CA00000E400E00021074000F0ACB800F07CB890
:101CB00000F056B800F090B800F076B900F050B9D6
:101CC0000846114600F0BAB8084600F03BB900BF1C
:101CD00072B60D490B68B3FA83F00B2810DC4FF095
:101CE0000042C24023EA02030B6062B6074A00EBDF
:101CF000C000C10002EBC000002353504360704796
:101D000062B60020704700BF3887FF1FBC83FF1FEB
:101D10000E4BC31AB3F5587F10D20D4A127872B920
:101D200072B60C4A0C49A2FB032308684FF000422C
:101D30001B0922FA03F303430B6062B67047074A9C
:101D40001278002AECD0FFF72DBB00BFBC83FF1F29
:101D5000688EFF1F398EE3383887FF1F5C8EFF1FA8
:101D600038B50F4C206878B143880288C118013318
:101D70009A420D7A02D94380284638BDFFF7C8FF42
:101D800000232360284638BD064B1B782BB1032067
:101D9000FFF7D0FA20600028E6D14FF0FF35EBE7DF
:101DA0006C8EFF1F5C8EFF1F10B5094C206818B1A8
:101DB00043881844007A10BD064B1B782BB10320D2
:101DC000FFF7B8FA20600028F2D14FF0FF3010BDC5
:101DD0006C8EFF1F5C8EFF1F084B094A1B6810B5F5
:101DE00094881BB11A885B88D31A1C440CB1204616
:101DF00010BD00F029F9204610BD00BF6C8EFF1FFA
:101E0000608EFF1F0B4B1B789BB110B50A4C2068EE
:101E100048B1FFF77DFF002303202360FFF78AFA14
:101E200030B1FFF775FF0320FFF784FA0028F8D1DF
:101E300010BD70475C8EFF1F6C8EFF1F2DE9F04FA9
:101E4000DFF8EC9083B0012289F80020019179B38A
:101E5000384FDFF8E480019D384EDFF8E4A0834678
:101E60003968A1B3B1F802E0CEF1400CAC4528BF0F
:101E7000AC460EEB0C040022A4B23270A5EB0C05AC
:101E80004C8001F10802BCF1000F0AD00EF1FF3EB8
:101E90007244DC441BF8014B02F8014FDC45F9D1D8
:101EA0004C883F2C0BD805228AF80020002DD7D172
:101EB0000198002389F8003003B0BDE8F08F40227C
:101EC0000A800420FFF7AEFA00223A60EBE798F8A8
:101ED00000202AB34AF2F92408E0013C19D03278F4
:101EE000BAB900F0B1F898F80020CAB10420FFF7A1
:101EF00043FA0728F1D84FF0010389F80030FFF7C3
:101F0000E7FE014638600028ACD1013C89F80000AA
:101F1000E5D101234FF0FF30337003B0BDE8F08FFF
:101F200000234FF0FF3089F8003003B0BDE8F08F98
:101F3000718EFF1F748EFF1F5C8EFF1F708EFF1F40
:101F4000888EFF1F00B583B0034601210DF1070005
:101F50008DF80730FFF772FF03B05DF804FB00BF98
:101F600038B50E4D0E4C28680123237028B14088E7
:101F70000023C0F14000237038BD0A4B1B7813B911
:101F80000020207038BD0420FFF7F6F90728F7D8A5
:101F9000FFF79EFE28600028E9D1F1E7748EFF1F4D
:101FA000718EFF1F5C8EFF1FF8B5114B1B788BB134
:101FB000104E114D346801272F7064B10F4B00276C
:101FC0001F706388238021460420FFF72BFA3760B7
:101FD00000232B70F8BDFFF77BFE084B014620B1B4
:101FE00004201C70FFF71EFAF2E71F70F0E700BF35
:101FF0005C8EFF1F748EFF1F718EFF1F888EFF1F68
:1020000038B50E4B1B7853B90D4C216841B103F024
:10201000FF054B880B800420FFF704FA256038BDCC
:10202000FFF756FE014620B1BDE838400420FFF717
:10203000F9B9044B01221A7038BD00BF718EFF1F21
:10204000748EFF1F888EFF1F2DE9F843324E3378C0
:1020500063B1324F3A784AB90122D9073A7043D472
:102060009A0726D400225B073A7001D4BDE8F883B2
:102070002B4B1A68002AF9D0EFF30582002AF5D11C
:10208000EFF3108572B6186800283AD0254C2178F5
:10209000002936D142691A6001232370002A37D003
:1020A000916105B962B60025836845779847257028
:1020B000DCE7DFF8748098F80020002AD2D00025F1
:1020C000DFF868902B4659F82340236820461B69A7
:1020D0000135984708B12369984798F80020EBB27A
:1020E0009A42F0D83378BDE7FFF776FE68B9104B17
:1020F0001B780BB93378B3E7337803F0FE03337002
:10210000AEE7002DB2D162B6B0E700F0A5F8EEE779
:10211000084B1A60C5E700BF3C87FF1F898EFF1F71
:102120008C8EFF1F988EFF1FAC8EFF1FA08EFF1F8F
:10213000703E00009C8EFF1F70B5EFF3108272B6E8
:102140000C4C206880B10C4E00254369236073B1AC
:102150009D6102B962B6836845779847EFF31082B4
:1021600072B620680028F0D102B962B670BD336043
:10217000EFE700BF948EFF1F908EFF1FFFF7DCBFBD
:10218000024A136801331360704700BF7C8DFF1F44
:102190002A4B2B4A6020E121187059701378294886
:1021A000082B34D00A2B20D00C2B274B0CBF352109
:1021B0003D2112228160C2609960DA60234B21497F
:1021C0001B78214ACBB101230B621362204B1D49BE
:1021D0001B781D4A012B13D9042B1BD884234B6277
:1021E00053621C4B01221A707047174B392113227E
:1021F0008160C2609960DA60E0E70B621362E5E734
:1022000080234B625362134B01221A7070470E4BAE
:102210000121ECE7082B06D885234B6253620D4B56
:1022200001221A707047102B94BF862387234B62BC
:102230005362084B01221A70704700BF00400740EC
:102240003D87FF1F00B0034000B00B40AD8EFF1F65
:102250003E87FF1FAE8EFF1F704700BF10B584B0D2
:1022600072B6174A702441200F2180231470D07158
:102270009171137013781B06FCD5906862B6114BF0
:10228000114C984238BF00EB800001A938BF4000D4
:102290000A22FEF7F7FD01A92046002311F8012BC1
:1022A00001333AB10A2B20F8022FF7D116232370FD
:1022B00004B010BD5B00DBB2237004B010BD00BFE2
:1022C0000000024080969800CC87FF1F0346084616
:1022D000194600F0B9BF00BF80F0004002E000BF27
:1022E00081F0004142001FBF5FEA410392EA030F01
:1022F0007FEA226C7FEA236C6AD04FEA1262D2EB4B
:102300001363C1BFD218414048404140B8BF5B424F
:10231000192B88BF704710F0004F40F4000020F0E8
:102320007F4018BF404211F0004F41F4000121F0FE
:102330007F4118BF494292EA030F3FD0A2F1010248
:1023400041FA03FC10EB0C00C3F1200301FA03F186
:1023500000F0004302D5494260EB4000B0F5000FA9
:1023600013D3B0F1807F06D340084FEA310102F168
:102370000102FE2A51D2B1F1004F40EBC25008BF1A
:1023800020F0010040EA03007047490040EB0000E4
:10239000013A28BFB0F5000FEDD2B0FA80FCACF1E5
:1023A000080CB2EB0C0200FA0CF0AABF00EBC25012
:1023B00052421843BCBFD0401843704792F0000F00
:1023C00081F4000106BF80F400000132013BB5E753
:1023D0004FEA41037FEA226C18BF7FEA236C21D0C9
:1023E00092EA030F04D092F0000F08BF084670472E
:1023F00090EA010F1CBF0020704712F07F4F04D1FC
:10240000400028BF40F00040704712F100723CBF0E
:1024100000F50000704700F0004343F0FE4040F438
:10242000000070477FEA226216BF08467FEA2363F6
:102430000146420206BF5FEA412390EA010F40F4E1
:10244000800070474FF0000304E000BF10F000432D
:1024500048BF40425FEA000C08BF704743F0964314
:1024600001464FF000001CE050EA010208BF70472F
:102470004FF000030AE000BF50EA010208BF7047B6
:1024800011F0004302D5404261EB41015FEA010CCB
:1024900002BF84460146002043F0B64308BFA3F1C3
:1024A0008053A3F50003BCFA8CF2083AA3EBC253A5
:1024B00010DB01FA02FC634400FA02FCC2F12002C4
:1024C000BCF1004F20FA02F243EB020008BF20F0FB
:1024D0000100704702F1200201FA02FCC2F1200261
:1024E00050EA4C0021FA02F243EB020008BF20EA56
:1024F000DC7070474FF0FF0C1CEAD0521EBF1CEA84
:10250000D15392EA0C0F93EA0C0F6FD01A4480EA71
:10251000010C400218BF5FEA41211ED04FF000635A
:1025200043EA501043EA5111A0FB01310CF0004086
:10253000B1F5000F3EBF490041EAD3715B0040EAAC
:10254000010062F17F02FD2A1DD8B3F1004F40EB7C
:10255000C25008BF20F00100704790F0000F0CF04F
:10256000004C08BF49024CEA502040EA51207F3A13
:10257000C2BFD2F1FF0340EAC250704740F40000EE
:102580004FF00003013A5DDC12F1190FDCBF00F0DF
:1025900000407047C2F10002410021FA02F1C2F18D
:1025A000200200FA02FC5FEA310040F1000053EA29
:1025B0004C0308BF20EADC70704792F0000F00F077
:1025C000004C02BF400010F4000F013AF9D040EA7D
:1025D0000C0093F0000F01F0004C02BF490011F411
:1025E000000F013BF9D041EA0C018FE70CEAD1530F
:1025F00092EA0C0F18BF93EA0C0F0AD030F0004C8F
:1026000018BF31F0004CD8D180EA010000F0004042
:10261000704790F0000F17BF90F0004F084691F000
:10262000000F91F0004F14D092EA0C0F01D142023A
:102630000FD193EA0C0F03D14B0218BF084608D103
:1026400080EA010000F0004040F0FE4040F400004D
:10265000704740F0FE4040F4400070474FF0FF0CE0
:102660001CEAD0521EBF1CEAD15392EA0C0F93EA27
:102670000C0F69D0A2EB030280EA010C49024FEA79
:10268000402037D04FF0805343EA111143EA101332
:102690000CF000408B4238BF5B0042F17D024FF4EA
:1026A000000C8B4224BF5B1A40EA0C00B3EB510FC5
:1026B00024BFA3EB510340EA5C00B3EB910F24BFAE
:1026C000A3EB910340EA9C00B3EBD10F24BFA3EB33
:1026D000D10340EADC001B0118BF5FEA1C1CE0D1FB
:1026E000FD2A3FF650AF8B4240EBC25008BF20F0AE
:1026F000010070470CF0004C4CEA50207F32C2BF02
:10270000D2F1FF0340EAC250704740F400004FF09E
:102710000003013A37E792F0000F00F0004C02BFCF
:10272000400010F4000F013AF9D040EA0C0093F099
:10273000000F01F0004C02BF490011F4000F013BF3
:10274000F9D041EA0C0195E70CEAD15392EA0C0F5B
:1027500008D142027FF47DAF93EA0C0F7FF470AF93
:10276000084676E793EA0C0F04D14B023FF44CAFD6
:1027700008466EE730F0004C18BF31F0004CCAD16B
:1027800030F000427FF45CAF31F000437FF43CAFA7
:102790005FE700BF4FF0FF3C06E000BF4FF0010CC9
:1027A00002E000BF4FF0010C4DF804CD4FEA4002AB
:1027B0004FEA41037FEA226C18BF7FEA236C11D0F5
:1027C00001B052EA530C18BF90EA010F58BFB2EBA8
:1027D000030088BFC81738BF6FEAE17018BF40F028
:1027E000010070477FEA226C02D15FEA402C05D1DC
:1027F0007FEA236CE4D15FEA412CE1D05DF8040B61
:10280000704700BF844608466146FFE70FB5FFF7F3
:10281000C9FF002848BF10F1000F0FBD4DF808EDAB
:10282000FFF7F4FF0CBF012000205DF808FB00BF9C
:102830004DF808EDFFF7EAFF34BF012000205DF8F6
:1028400008FB00BF4DF808EDFFF7E0FF94BF012043
:1028500000205DF808FB00BF4DF808EDFFF7D2FF40
:1028600094BF012000205DF808FB00BF4DF808ED83
:10287000FFF7C8FF34BF012000205DF808FB00BF50
:1028800042000ED2B2F1FE4F0BD34FF09E03B3EBDA
:10289000126209D44FEA002343F0004323FA02F006
:1028A00070474FF00000704712F1610F01D14202F2
:1028B00002D14FF0FF3070474FF00000704700BF6B
:1028C000024B0146186800F00BB800BF188DFF1FBF
:1028D000024B0146186801F0E5B800BF188DFF1FD4
:1028E0002DE9F04F01F10B06162E83B0044624D8D3
:1028F000102900F2BA8000F0A3FA10261822022054
:10290000B54F3A44A2F1080153688B4200F0BA80F7
:102910005A68D96822F003021A449D68E9608D6004
:10292000516841F001012046516003F1080500F0B3
:102930008DFA284603B0BDE8F08F36F0070600F1A7
:102940009480B14200F2918000F07AFAB6F5FC7FF3
:10295000C0F09A81730A00F08F80042B00F26F811F
:10296000B30903F1390003F1380CC3009A4F3B441B
:10297000A3F108055B689D4206D10CE0002980F2B6
:102980002781DB689D4206D05A6822F00302911B22
:102990000F29F3DD60463D69DFF840C265457CD014
:1029A0006A6822F00302931B0F2B00F37B81002B3C
:1029B000C7E904CC80F26C81B2F5007F80F01A8107
:1029C000D308796801334FEA521E012202FA0EF24F
:1029D0000A4357F833E0C5F808E007EBC3010839AC
:1029E000E9607A6047F83350CEF80C50831001212B
:1029F0009940914257D8114206D120F00300490076
:102A0000114200F10400FAD007EBC0094D4686469A
:102A1000D5F80C80454508D11DE1002B80F22481BA
:102A2000D8F80C80454500F01681D8F8042022F033
:102A30000302931B0F2BF0DD2046D8E9025408EB6C
:102A4000060146F00106C8F80460EC60A56043F09A
:102A50000104C7E90411C1E902CC4C6048F8023016
:102A600000F0F4F908F1080502E00C2323600025CA
:102A7000284603B0BDE8F08F4FF4007340204FF0BC
:102A80003F0C73E7D3689A4208BF02307FF440AF2F
:102A90003D69DFF848C1654582D17A68831001211C
:102AA00099409142A7D9BD686B6823F003094E4550
:102AB00003D8A9EB06030F2B7ADCDFF824B1494BCE
:102AC000DBF800201B680132334405EB090A00F0F3
:102AD000338103F580530F3323F47F6828F00F0808
:102AE0004146204600F0B6FC411C024600F0F3804F
:102AF000824500F2EE803C4B19684144196008465B
:102B000000F04E81DBF80010019301311BBFA2EBF6
:102B10000A010918CBF80020196012F0070B00F029
:102B20001781CBF108010A44CBF58051904408315C
:102B3000A1EB0801C1F30B0A51462046009200F0B8
:102B400089FC421CDDE9002300F04F81801A00EB74
:102B50000A081968BA6048F001005144BD4250604B
:102B6000196000F02981B9F10F0F40F227816868E0
:102B7000A9F10C0C2CF0070C00F0010040EA0C004D
:102B800068604FF0050E05EB0C00BCF10F0FC0E9BB
:102B900001EE00F2328150681546144B1A688A42E1
:102BA00038BF1960124B1A688A4238BF196094E026
:102BB000AA1943F0010346F001066E602046BA6090
:102BC000536000F043F90835284603B0BDE8F08FA4
:102BD000D9681A44A1E600BFE487FF1FEC87FF1FF6
:102BE000EC8BFF1FE08EFF1FB08EFF1FD88EFF1FE4
:102BF000DC8EFF1FB2F5206F4FEA522363D3142BF4
:102C000000F2B78003F15C01C9005B3307EB010EF2
:102C10007958AEF1080E8E4500F091804B6823F094
:102C20000303934202D989688E45F7D1D1F80CE0AD
:102C30007A68C5E9021ECEF80850CD60D6E6142B9E
:102C400059D9542B00F29D80330B03F16F0003F12F
:102C50006E0CC3008AE60EF1010E1EF0030F05F1A3
:102C600008057FF4D5AE51E0424445465368D8F894
:102C70000C1043F00103536055F8083F2046D9601B
:102C80008B6000F0E3F8F3E6F00806F1080237E69F
:102C90002A442046536843F001035360083500F08E
:102CA000D5F8E5E6A919204646F0010643F00104EF
:102CB0006E60C7E90411C1E902CC4C60AB5000F072
:102CC000C5F80835D4E6930903F13901C900383352
:102CD0009CE7BD425FD0BD68686820F003084645A8
:102CE000A8EB060302D80F2B3FF762AF204600F097
:102CF000ADF80025BCE603F15C0003F15B0CC300FA
:102D000034E659F808394B4540F0968010F0030F2F
:102D100000F1FF30F5D17B6823EA01037B604900B5
:102D200099423FF6C0AE19B9BDE649000EF1040E56
:102D30001942FAD0704667E603F11008D0E69A10FF
:102D40004FF001087B6808FA02F21A437A6070E7D4
:102D500002EB08014942C1F30B0A5146204600929A
:102D600000F078FB431CDDE900237FF4EFAEDA4688
:102D7000EFE6542B25D8130B03F16F01C9006E3316
:102D800044E7B3F5AA7F25D8F30B03F1780003F1EC
:102D9000770CC300EAE5294B186840441860B1E697
:102DA000CAF30B0CBCF1000F7FF4ACAEBD68C84495
:102DB00048F001006860F0E61546EEE60123536036
:102DC00094E7B3F5AA7F23D8D30B03F17801C900A8
:102DD00077331BE740F25452934223D8B30C03F1EC
:102DE0007D0003F17C0CC300C0E5ABF1080BD844B7
:102DF000A8EB02084FF0000AABE605F108012046F7
:102E0000009300F04FFEBD68009B68681968C4E637
:102E100040F254518B420BD8930C03F17D01C90051
:102E20007C33F3E64FF47E737F204FF07E0C9DE5FC
:102E30004FF47E717E23E9E67B6870E7B08EFF1F5A
:102E4000014800F043BB00BF2490FF1F014800F081
:102E50003FBB00BF2490FF1F10B4044C03460A463A
:102E6000206810BC194600F003B800BF188DFF1F82
:102E70002DE9F84F1746002900F098800C4607F11D
:102E80000B058046FFF7DCFF162D54F8041C5BD8B9
:102E900010252A46AF425CD821F003069642A4F1E1
:102EA000080962DABC4BD3F808C009EB0600844578
:102EB00000F09780D0F804C02CF0010303445B6855
:102EC000DB0768D42CF0030C06EB0C03934247DAC3
:102ED000CB0710D454F8083CA9EB030ADAF8043005
:102EE00023F003018C44B444944580F2118173189B
:102EF000934280F2E88039464046FFF7F1FC0746EE
:102F0000E0B154F8043C23F001034B44A0F1080263
:102F1000934200F0D280321F242A00F2F580132A57
:102F200000F2AC800346224611681960516859606E
:102F300092689A602146404600F0B4FD4046FFF793
:102F400085FF3846BDE8F88F25F00705002D2A4695
:102F5000A0DA0C23C8F8003000273846BDE8F88F07
:102F60001E46D0E90223D3609A60731B0F2B22D830
:102F7000D9F8043003F0010333434E44C9F8043058
:102F8000736843F00103736040462746FFF75EFF16
:102F90003846BDE8F88FC907ADD454F8083CA9EB12
:102FA000030ADAF8041021F00301A0E7BDE8F84FA6
:102FB0001146FFF795BCD9F8042009EB050102F092
:102FC00001024E4443F001032A43C9F804204B6038
:102FD000736843F0010308317360404600F062FDFE
:102FE000D2E7DCF8040020F0030B06EB0B0C05F134
:102FF000100084454DDAC9073FF57DAF54F8081C31
:10300000A9EB010ADAF8041021F003018B44B34460
:1030100058453FF76CAF5746DAF80C1057F8080FD1
:10302000321F242AC160886000F2DB80132A40F23C
:10303000D6802168CAF808106168CAF80C101B2AEB
:1030400000F2DF8008340AF1100221681160616823
:103050005160A16891600AEB0501ABEB050242F0FB
:10306000010299604A60DAF8043003F001032B434F
:103070004046CAF80430FFF7E9FE6EE723680360B4
:10308000636843601B2A68D804F1080200F1080352
:103090004AE709EB05029A60ACEB050343F0010334
:1030A000536054F8043C03F001032B43404644F8BA
:1030B000043CFFF7CBFE27464FE750F8043C23F0D3
:1030C00003031E4451E75746DAF80C1057F8080F6F
:1030D000321F242AC16088604CD8132A48D921683D
:1030E000CAF808106168CAF80C101B2A56D80834B0
:1030F0000AF110021E462368136063685360A368D8
:103100009360D1463C4630E7214600F0A3F811E732
:10311000D0E902135746CB60996057F8081FDAF8D8
:103120000C30CB60321F242A99602DD8132A29D95C
:103130002368CAF808306368CAF80C301B2A42D8E2
:1031400008340AF1100322681A6062685A60A268A3
:103150009A606646D1463C4607E7A3688360E36809
:10316000C360242A26D004F1100200F11003DBE62C
:103170003A46BFE7214638461E46D14600F06AF877
:103180003C46F2E63B46DEE7214638466646D146F7
:1031900000F060F83C46E8E6E487FF1FA168CAF843
:1031A0001010E168CAF81410242A20D010340AF153
:1031B00018029FE7236903616169416104F1180204
:1031C00000F11803B0E6A368CAF81030E368CAF843
:1031D0001430242A21D010340AF11803B3E73A46F8
:1031E00033E72146384600F035F8164B33E72269BD
:1031F000CAF818206269CAF81C2018340AF12002A3
:1032000078E7A168CAF81010E168CAF81410242AF7
:103210000DD010340AF1180217E72369CAF81830E4
:103220006369CAF81C3018340AF120038BE722695D
:10323000CAF818206269CAF81C2018340AF1200262
:1032400003E700BFE487FF1F13460A46014602203A
:1032500000F084BB88420DD98B1883420AD900EB59
:10326000020CBAB1624613F801CD02F801CD9942C1
:10327000F9D170470F2A0ED8034602F1FF3C4AB13C
:103280000CF1010C013B8C4411F8012B03F8012FC8
:103290006145F9D1704740EA01039B0750D1A2F183
:1032A000100370B501F1200C23F00F0501F1100E91
:1032B00000F11004AC441B095EF8105C44F8105C8B
:1032C0005EF80C5C44F80C5C5EF8085C44F8085C42
:1032D0005EF8045C44F8045C0EF1100EE64504F15F
:1032E0001004E9D1013312F00C0F01EB031102F0CD
:1032F0000F0400EB031327D0043C24F003064FEA2D
:10330000940C1E441C1F8E465EF8045B44F8045F58
:10331000B442F9D10CF1010402F0030203EB84037F
:1033200001EB840102F1FF3C4AB10CF1010C013BBD
:103330008C4411F8012B03F8012F6145F9D170BDC0
:1033400002F1FF3C03469BE72246EBE7830730B5DB
:1033500048D0541E002A3FD0CAB2034601E0013CC7
:103360003AD303F8012B9D07F9D1032C2DD9CDB207
:1033700045EA05250F2C45EA054536D9A4F110028A
:1033800022F00F0C03F1200EE6444FEA121C03F169
:10339000100242E9045542E9025510327245F8D153
:1033A0000CF1010214F00C0F03EB021204F00F0CED
:1033B00013D0ACF1040323F003030433134442F8A5
:1033C000045B9342FBD10CF003042CB1C9B21C4442
:1033D00003F8011B9C42FBD130BD64461346002C10
:1033E000F4D1F9E703461446BFE71A46A446E0E7DE
:1033F00040EA01039B0730B501D1032A0FD8844668
:1034000001F1FF3E07E01EF8011F03F8011B541EE7
:10341000C1B19C4622466346002AF4D130BD0B461A
:103420008446194653F8045BA5F1013424EA0504E7
:1034300014F0803FE4D1043A032A4CF8045B1946A7
:10344000EFD8DDE79444002CE8D003F8011B634576
:10345000FBD130BD38B5074D0022044608462A602E
:10346000FDF7FAFC431C00D038BD2B68002BFBD0C5
:10347000236038BD1C90FF1F014B1868704700BFC8
:10348000188DFF1F70B50D4E0D4D761BB61006D072
:10349000002455F8043B01349847A642F9D1094E5F
:1034A000094D761B00F012FDB61006D0002455F829
:1034B000043B01349847A642F9D170BDD83E0000C4
:1034C000D83E0000E43E0000D83E0000704700BF38
:1034D000704700BFFFFFFFFFFFFFFFFFFFFFFFFF82
:1034E000A2EB0300704700BF02780B78012A28BFC7
:1034F0009A42F5D16DE9044540EA0104CDE902673D
:103500006FF0000C4FEA447212B380EA010414F029
:10351000070F6AD100F0070420F0070004F003054C
:1035200021F007014FEAC505F0E8042314F0040F69
:10353000F1E804670CFA05F462EA040266EA04069C
:103540000AD063EA0403624667EA0407664603E0BA
:10355000F0E80423F1E8046782FA4CF582EA0604F5
:10356000A4FA8CF46CBB83FA4CF583EA0705A5FA40
:103570008CF595B950E9022351E9026782FA4CF5BE
:1035800082EA0604A4FA8CF483FA4CF583EA070570
:10359000A5FA8CF52543DBD09CB92DBAB5FA85F494
:1035A00024F0070427FA04F1DDE9026723FA04F3A3
:1035B00003F0FF0001F0FF01FDE80445A0EB01006E
:1035C000704724BAB4FA84F424F0070426FA04F10C
:1035D000DDE9026722FA04F202F0FF0001F0FF01C8
:1035E000FDE80445A0EB0100704714F0030F3CD147
:1035F00010F0030428D150F8082B51F8083B82FA48
:103600004CF582EA0305A5FA8CF55DB950F8042C57
:1036100051F8043C82FA4CF582EA0305A5FA8CF5D0
:10362000002DE8D02DBAB5FA85F424F0070423FA6A
:1036300004F122FA04F202F0FF0001F0FF01FDE8BC
:103640000445A0EB010070474FEAC40420F00300DA
:1036500050F8082B21F0030151F8083B0CFA04F450
:1036600062EA040263EA0403C9E710F003041AD013
:10367000A1EB040120F00300E40750F8042B06D06E
:103680000FD28B785FFAA2F4E41A06D12BB1CB7873
:103690005FFAB2F4E41A00D11BB920465DF8104B72
:1036A000704701F1040150F8042BCC0721F003010D
:1036B00051F8043B48D824D222F07F4482FA4CF5DA
:1036C00094EA1325A5FA8CF50AD165B951F8043BA3
:1036D00084EA0204B4EB036F0ED150F8042BEBE73D
:1036E0004FEA132355E035F07F454DD10878FDE8CA
:1036F0000445C0F1000070474FEA126203F0FF0377
:1037000047E002EA1C4482FA4CF594EA1345A5FA14
:103710008CF50AD165B951F8043B84EA0204B4EB94
:10372000034F0CD150F8042BEBE74FEA134330E082
:1037300015EA1C4528D10B884FEA124229E04FEACE
:10374000124203EA1C4324E002F0FF0482FA4CF523
:1037500094EA1365A5FA8CF50AD165B951F8043BD2
:1037600084EA0204B4EB032F09D150F8042BEBE7F1
:103770004FEA13630DE015F0FF0F05D10B684FEA18
:10378000122223F07F4304E04FF00000FDE80445DF
:10379000704712BA1BBA82FA4CF482EA0304A4FA04
:1037A0008CF5B5FA85F402FA04F203FA04F34FEA51
:1037B0001260FDE80445A0EB1360704780EA010247
:1037C000844612F0030F4FD111F0030F32D14DF8A0
:1037D000044D11F0040F51F8043B0BD0A3F101325A
:1037E0009A4312F0803F04BF4CF8043B51F8043B6D
:1037F00016D100BF51F8044BA3F101329A4312F0E5
:10380000803FA4F101320BD14CF8043BA24312F0EB
:10381000803F04BF51F8043B4CF8044BEAD02346E8
:103820000CF8013B13F0FF0F4FEA3323F8D15DF89A
:10383000044B704711F0010F06D011F8012B0CF862
:10384000012B002A08BF704711F0020FBFD031F8DA
:10385000022B12F0FF0F16BF2CF8022B8CF8002061
:1038600012F47F4FB3D1704711F8012B0CF8012BE4
:10387000002AF9D1704700BFFFFFFFFFFFFFFFFFE6
:1038800090F800F06DE9024520F007016FF0000CA0
:1038900010F0070491F820F040F049804FF0000448
:1038A0006FF00700D1E9002391F840F000F1080023
:1038B00082FA4CF2A4FA8CF283FA4CF3A2FA8CF35B
:1038C0004BBBD1E9022382FA4CF200F10800A4FAC2
:1038D0008CF283FA4CF3A2FA8CF3E3B9D1E9042316
:1038E00082FA4CF200F10800A4FA8CF283FA4CF34D
:1038F000A2FA8CF37BB9D1E9062301F1200182FA07
:103900004CF200F10800A4FA8CF283FA4CF3A2FA0C
:103910008CF3002BC6D0002A04BF04301A4612BA1A
:10392000B2FA82F2FDE8024500EBD2007047D1E91D
:10393000002304F00305C4F100004FEAC50514F0AC
:10394000040F91F840F00CFA05F562EA05021CBF7D
:1039500063EA050362464FF00004A9E72DE9F0474A
:10396000DFF874A00646DAF8000098460F46914644
:10397000FFF7ACFD194B1C6824B365681F2D24DCD0
:103980005EB96B1C0235DAF80000636044F82570FC
:10399000FFF79EFD0020BDE8F08704EB85010123C1
:1039A000C1F88890D4F88821AB401A43022EC4F89D
:1039B0008821C1F80881E4D1D4F88C211A43C4F8D5
:1039C0008C21DEE7064C1C60D7E7DAF80000FFF731
:1039D0007FFD4FF0FF30DEE71C8DFF1FB891FF1F0A
:1039E0002890FF1F024B13B1024800F005B8704742
:1039F00000000000B13C0000002301461A461846B2
:103A0000FFF7ACBFF8B5244F0C460646FFF718FA8F
:103A1000BB685D68C4F57E610F3125F003054B1965
:103A200023F47F6323F00F03A3F58054B4F5805F84
:103A300007DB00213046FFF70DFDBB682B449842A1
:103A400004D03046FFF702FA0020F8BD614230464C
:103A5000FFF700FD01300DD0104ABB682D1B45F06B
:103A600001055D60136830461B1B1360FFF7EEF91C
:103A70000120F8BD00213046FFF7ECFCBA68831A3C
:103A80000F2BDEDD43F001035360054B03491B6838
:103A9000C01A0860D5E700BFE487FF1FB08EFF1F84
:103AA000EC8BFF1F002961D0F8B50C460646FFF7E6
:103AB000C7F954F8042C7B4FA4F1080522F001014A
:103AC00005EB010CB868DCF80430604523F0030313
:103AD00000F08B80D207CCF8043032D454F8082C94
:103AE000AD1A1144AA6807F1080082426AD00CEBB3
:103AF0000304D4F804E0EC68D4601EF0010FA26067
:103B000000F0978041F001036B60CCF80010B1F534
:103B1000007F35D27868CB080122490901338A40F9
:103B2000024357F833107A6007EBC302083AC5E93D
:103B3000021247F83350CD603046BDE8F840FFF739
:103B400085B90CEB03025268D00710D4194407F171
:103B50000800DCF80830834273D0DCF80C20DA600F
:103B6000936041F001036B606950D0E7704741F00A
:103B70000103B1F5007F44F8043CCCF80010C9D330
:103B8000B1F5206F4FEA512348D28B0903F1390078
:103B900003F13802C300F818FB580838984259D08E
:103BA0005A6822F003028A4202D99B689842F7D1F0
:103BB000D868C5E902308560DD603046BDE8F84070
:103BC000FFF744B90CEB03025268D20763D40B44ED
:103BD000DCE90212CA60916043F001026A6030467B
:103BE000EB50BDE8F840FFF731B90B44D10707D4DB
:103BF00054F8082CAD1A1344D5E90212CA6091603A
:103C000043F001026A60284ABD6012689A4293D864
:103C1000264B30461968FFF7F5FE8DE7142B0AD9BD
:103C2000542B1FD80B0B03F16F0003F16E02C3007E
:103C3000B1E719448DE703F15C0003F15B02C300B7
:103C4000A9E741F00103C7E90455C5E902006B602B
:103C5000695071E779689210012404FA02F20A436C
:103C60007A60A6E7B3F5AA7F06D8CB0B03F17800FC
:103C700003F17702C3008EE740F25452934206D814
:103C80008B0C03F17D0003F17C02C30083E74FF44A
:103C90007E737E227FE741F001036B60CCF8001059
:103CA0004AE700BFE487FF1FF08BFF1FE08EFF1F76
:103CB00038B5074D074C2C1BA41005D0013C55F816
:103CC000043D9847002CF9D1BDE8384000F00AB90E
:103CD000000000000000000053657269616C205212
:103CE0006561647900FFFFFF547261636B204C6F64
:103CF00061646572204353207633000076302E30A5
:103D00002E3100FF69000000727856616C30303A45
:103D1000000000003E000000727856616C30313ABD
:103D200000000000727856616C30323A00FFFFFFED
:103D30002000FFFF3A00FFFF4008FE4340A0044080
:103D40004408FE4344A004400018FE4300C0044061
:103D50003000FE43309004403400FE433490044071
:103D60001C18FE431CC004401018FE4310C0044041
:103D70000818FE4308C004400C18FE430CC0044061
:103D80000C10FE430CB004401010FE4310B0044071
:103D90001810FE4318B004401C10FE431CB0044031
:103DA0001410FE4314B004400418FE4304C0044041
:103DB0000010FE4300B004400008FE4300A0044091
:103DC0000408FE4304A004400C08FE430CA0044079
:103DD0000808FE4308A004401418FE4314C0044021
:103DE0001818FE4318C004400410FE4304B00440F9
:103DF0000810FE4308B004401400FE431490044031
:103E00004C08FE434CA004400420FE4304D0044070
:103E10002410FE4324B004402010FE4320B0044090
:103E20002810FE4328B004402C10FE432CB0044060
:103E30000020FE4300D004404808FE4348A0044050
:103E40001000FE431090044000000000000000003D
:103E5000C91C0000C11C0000BD1C0000B91C0000F2
:103E6000B51C0000B11C0000AD1C0000A91C000026
:103E700000FFFFFF000100008487FF1F1200000009
:103E8000000200004087FF1F430000000003000005
:103E90009887FF1F00000000010309049C87FF1F93
:103EA0000000000002030904B487FF1F00000000A7
:103EB00003030904CC87FF1F00000000000000007E
:103EC000000000000000000000151915F8B500BF43
:103ED000F8BC08BC9E467047E53900003504000078
:043EE000D106000007
:043EE400F8B500BF6E
:083EE800E4E3FF7F010000008C
:103EF00000000000BC91FF1F503E000000000000C9
:103F0000E803000000000000FFFFFFFF010A0400BB
:103F100009024300020100C032090400000102024C
:103F200001000524001001052401010104240206FA
:103F30000524060001070582031000400904010062
:103F4000020A000000070503024000000705840282
:103F5000400000001201100102000040C01683045E
:103F60007502010203010000040309041803540050
:103F7000650065006E0073007900640075006900DB
:103F80006E006F00160355005300420020005300DE
:103F900065007200690061006C0000000C03000005
:103FA0000000000000000000000000000000000011
:103FB000000000000000000000000000E487FF1F78
:103FC000E487FF1FEC87FF1FEC87FF1FF487FF1FAD
:103FD000F487FF1FFC87FF1FFC87FF1F0488FF1F5C
:103FE0000488FF1F0C88FF1F0C88FF1F1488FF1F09
:103FF0001488FF1F1C88FF1F1C88FF1F2488FF1FB9
:104000002488FF1F2C88FF1F2C88FF1F3488FF1F68
:104010003488FF1F3C88FF1F3C88FF1F4488FF1F18
:104020004488FF1F4C88FF1F4C88FF1F5488FF1FC8
:104030005488FF1F5C88FF1F5C88FF1F6488FF1F78
:104040006488FF1F6C88FF1F6C88FF1F7488FF1F28
:104050007488FF1F7C88FF1F7C88FF1F8488FF1FD8
:104060008488FF1F8C88FF1F8C88FF1F9488FF1F88
:104070009488FF1F9C88FF1F9C88FF1FA488FF1F38
:10408000A488FF1FAC88FF1FAC88FF1FB488FF1FE8
:10409000B488FF1FBC88FF1FBC88FF1FC488FF1F98
:1040A000C488FF1FCC88FF1FCC88FF1FD488FF1F48
:1040B000D488FF1FDC88FF1FDC88FF1FE488FF1FF8
:1040C000E488FF1FEC88FF1FEC88FF1FF488FF1FA8
:1040D000F488FF1FFC88FF1FFC88FF1F0489FF1F57
:1040E0000489FF1F0C89FF1F0C89FF1F1489FF1F04
:1040F0001489FF1F1C89FF1F1C89FF1F2489FF1FB4
:104100002489FF1F2C89FF1F2C89FF1F3489FF1F63
:104110003489FF1F3C89FF1F3C89FF1F4489FF1F13
:104120004489FF1F4C89FF1F4C89FF1F5489FF1FC3
:104130005489FF1F5C89FF1F5C89FF1F6489FF1F73
:104140006489FF1F6C89FF1F6C89FF1F7489FF1F23
:104150007489FF1F7C89FF1F7C89FF1F8489FF1FD3
:104160008489FF1F8C89FF1F8C89FF1F9489FF1F83
:104170009489FF1F9C89FF1F9C89FF1FA489FF1F33
:10418000A489FF1FAC89FF1FAC89FF1FB489FF1FE3
:10419000B489FF1FBC89FF1FBC89FF1FC489FF1F93
:1041A000C489FF1FCC89FF1FCC89FF1FD489FF1F43
:1041B000D489FF1FDC89FF1FDC89FF1FE489FF1FF3
:1041C000E489FF1FEC89FF1FEC89FF1FF489FF1FA3
:1041D000F489FF1FFC89FF1FFC89FF1F048AFF1F52
:1041E000048AFF1F0C8AFF1F0C8AFF1F148AFF1FFF
:1041F000148AFF1F1C8AFF1F1C8AFF1F248AFF1FAF
:10420000248AFF1F2C8AFF1F2C8AFF1F348AFF1F5E
:10421000348AFF1F3C8AFF1F3C8AFF1F448AFF1F0E
:10422000448AFF1F4C8AFF1F4C8AFF1F548AFF1FBE
:10423000548AFF1F5C8AFF1F5C8AFF1F648AFF1F6E
:10424000648AFF1F6C8AFF1F6C8AFF1F748AFF1F1E
:10425000748AFF1F7C8AFF1F7C8AFF1F848AFF1FCE
:10426000848AFF1F8C8AFF1F8C8AFF1F948AFF1F7E
:10427000948AFF1F9C8AFF1F9C8AFF1FA48AFF1F2E
:10428000A48AFF1FAC8AFF1FAC8AFF1FB48AFF1FDE
:10429000B48AFF1FBC8AFF1FBC8AFF1FC48AFF1F8E
:1042A000C48AFF1FCC8AFF1FCC8AFF1FD48AFF1F3E
:1042B000D48AFF1FDC8AFF1FDC8AFF1FE48AFF1FEE
:1042C000E48AFF1FEC8AFF1FEC8AFF1FF48AFF1F9E
:1042D000F48AFF1FFC8AFF1FFC8AFF1F048BFF1F4D
:1042E000048BFF1F0C8BFF1F0C8BFF1F148BFF1FFA
:1042F000148BFF1F1C8BFF1F1C8BFF1F248BFF1FAA
:10430000248BFF1F2C8BFF1F2C8BFF1F348BFF1F59
:10431000348BFF1F3C8BFF1F3C8BFF1F448BFF1F09
:10432000448BFF1F4C8BFF1F4C8BFF1F548BFF1FB9
:10433000548BFF1F5C8BFF1F5C8BFF1F648BFF1F69
:10434000648BFF1F6C8BFF1F6C8BFF1F748BFF1F19
:10435000748BFF1F7C8BFF1F7C8BFF1F848BFF1FC9
:10436000848BFF1F8C8BFF1F8C8BFF1F948BFF1F79
:10437000948BFF1F9C8BFF1F9C8BFF1FA48BFF1F29
:10438000A48BFF1FAC8BFF1FAC8BFF1FB48BFF1FD9
:10439000B48BFF1FBC8BFF1FBC8BFF1FC48BFF1F89
:1043A000C48BFF1FCC8BFF1FCC8BFF1FD48BFF1F39
:1043B000D48BFF1FDC8BFF1FDC8BFF1FFFFFFFFF7A
:1043C000000002000000000000000000E48EFF1F5B
:1043D0004C8FFF1FB48FFF1F000000000000000083
:1043E00000000000000000000000000000000000CD
:1043F00000000000000000000000000000000000BD
:1044000000000000000000000000000000000000AC
:10441000000000000000000000000000000000009C
:10442000000000000000000000000000000000008C
:10443000000000000000000000000000000000007C
:10444000000000000000000000000000000000006C
:10445000000000000000000000000000000000005C
:1044600001000000000000000E33CDAB34126DE6F9
:10447000ECDE05000B000000000000000000000062
:10448000000000000000000000000000000000002C
:10449000000000000000000000000000000000001C
:1044A000000000000000000000000000000000000C
:1044B00000000000000000000000000000000000FC
:1044C00000000000000000000000000000000000EC
:1044D00000000000000000000000000000000000DC
:1044E0000000000000000000F88BFF1F2090FF1F5D
:00000001FF
